:020000040800F2
:10000000200A0020450100084D0100084F010008AA
:1000100051010008530100085501000800000000CC
:100020000000000000000000000000005701000870
:1000300059010008000000005B0100085D01000894
:100040005F0100085F0100085F0100085F01000810
:100050005F0100085F0100085F0100085F01000800
:100060005F0100085F0100085F0100085F010008F0
:100070005F0100085F0100085F0100085F010008E0
:100080005F0100085F0100085F0100085F010008D0
:100090005F0100085F0100085F0100085F010008C0
:1000A0005F0100085F0100085F0100085F010008B0
:1000B000050800085F0100085F0100085F010008F3
:1000C0005F0100085F0100085F0100085F01000890
:1000D0005F010008A9080008F9080008490900089C
:1000E0005F0100085F0100085F0100085F01000870
:1000F0005F0100085F0100085F0100085F01000860
:100100005F0100085F0100085F0100085F0100084F
:100110005F0100085F0100085F0100085F0100083F
:100120005F0100085F0100085F0100085F0100082F
:10013000DFF80CD000F058F900480047D50B000854
:10014000200A00200648804706480047FEE7FEE7F1
:10015000FEE7FEE7FEE7FEE7FEE7FEE7FEE7FEE777
:10016000A507000831010008D2B201E000F8012B18
:10017000491EFBD270470022F6E710B513460A4627
:1001800004461946FFF7F0FF204610BDF0B480EAA0
:100190000102D40F4200B2EB410F02D202460846E0
:1001A00011464A0042D0C30DDDB2C1F3C752AD1AA9
:1001B000202D35DAC1F3160141F4000204B1524298
:1001C000C5F1200602FA06F12A411044B3EBD05FD4
:1001D00023D0C4B1012DA0EBC35009DCF0BC4FF01B
:1001E000004202EAC352DBB200F5000000F0CEB8D4
:1001F000400000F1807000EBC350A0F1807040EA35
:10020000D170490009E0490841EAC071A0EBC35030
:1002100000F50000400800EBC350F0BC00F0ADB8A2
:100220006142012202EB4101001BF6E7F0BC70477E
:1002300081F00041AAE780F00040A7E780EA0102D0
:1002400010B502F00043400022D04A001FD0010E3A
:1002500001EB1261C0F35600C2F3560240F40000F5
:1002600042F40002A0FB022000047F39140400D0F5
:10027000401C50EA124001D44000491EC2B20C0694
:1002800004EBD010401C4008802A02D003E000207C
:1002900010BD20F00100002900DA0020184310BD35
:1002A00030B480EA010202F0004530F0004221F053
:1002B000004013D090B1C30DD40DC2F31601C0F3AA
:1002C0001600E41A41F4000140F400027D3491422A
:1002D00001D3641C00E04900002C02DA30BC00208D
:1002E00070474FF400000023914201D3891A034361
:1002F00040084FEA4101F7D151B1914202D14FF08C
:10030000004105E002D24FF0010101E06FF0010170
:1003100003EBC450284430BC00F02FB896230022D1
:10032000114600F033B820F00040C10DC0F31600B4
:1003300040F400007F2901DA00207047962903DC91
:10034000C1F19601C840704796398840704730B572
:100350000B46014600202022012409E021FA02F583
:100360009D4205D303FA02F5491B04FA02F528441D
:10037000151EA2F10102F1DC30BD0029A8BF7047B3
:10038000401C490008BF20F00100704710B4B0FACB
:1003900080FC00FA0CF050EA010404BF10BC704766
:1003A00049B1CCF1200421FA04F411FA0CF118BF80
:1003B000012121430843A3EB0C01CB1D4FEA00614F
:1003C0004FEA102042BF002010BC704700EBC35022
:1003D00010440029A4BF10BC7047401C490008BF4E
:1003E00020F0010010BC7047064C074D06E0E068A5
:1003F00040F0010394E8070098471034AC42F6D36C
:10040000FFF79AFE8C110008AC110008494880697A
:1004100040F00400474988610846806940F00800C0
:1004200088610846806940F0100088614FF6FF70CF
:10043000414908606FF0FF0040490860404908608A
:100440003C48806940F400703A4988610846C068B9
:1004500040F40070C8600846C06820F40070C860AE
:100460000846406820F4404048600846406840F430
:10047000004048603348006833490840314908600B
:100480000846006808600846006820F4807008602C
:10049000081D006820F00200091D08600846006879
:1004A00020F4602008600846006840F4602008607E
:1004B0000846006840F4801008600846006820F490
:1004C000006008601F482830006820F470001D4953
:1004D000283108600846006808603F201949083143
:1004E00008601A48091D08601648001D006840F0A1
:1004F00001001449091D08600846006840F0080022
:10050000086000BF0F48001D006800F008000028C8
:10051000F8D10C48001D006840F004000949091D8D
:10052000086000BF0748001D006800F004000028B4
:10053000F8D170470010024000080140000C014053
:100540000010014004240140FFFFF00000F0FF3FD5
:1005500001460F48006820F01F000D4A1060104649
:100560000068084310600A482C38006840F4800096
:10057000074A2C3A106000BF05483438006800F084
:1005800002000028F8D002481830006880B2704796
:100590003424014000B5002015490861C8601420CA
:1005A000486100208861C8610846006840F0010089
:1005B0000860084640680F4908400D4948600846F1
:1005C00000680D4908400A4908600846006820F4A0
:1005D000802008600846406820F4FE004860002043
:1005E000886000214FF0006000F008F800BD0000B6
:1005F000001002400000FFF8FFFFF6FE024A0A402A
:100600000243024B1A60704780FFFF1F08ED00E0B5
:1006100000BF0549098801F080010029F9D002498D
:10062000091D0880704700000048004010B500F028
:1006300001F810BD0CB5002001900090334800680F
:1006400040F480303149086000BF3048006800F451
:10065000003000900198401C0190009818B9019852
:10066000B0F5A06FF1D12948006800F4003010B156
:100670000120009001E0002000900098012843D163
:100680002348006840F010002149086008460068CF
:1006900020F0030008600846006840F0020008608F
:1006A0001A4840681949486008464068486008464A
:1006B000406840F4806048600846406820F47C1040
:1006C00048600846406840F4E81048600846006802
:1006D00040F08070086000BF0C48006800F00070B7
:1006E0000028F9D00948406820F003000749486015
:1006F0000846406840F00200486000BF0348406878
:1007000000F00C000828F9D10CBD000000100240D8
:100710000020024030B504460025FFF73BFF1F488C
:10072000006840F480301D49086000BF1B48006825
:10073000400C0028FAD04FF4806018494860A01E91
:10074000C4B20846406840EA8440486008464068B1
:1007500040F4803048601248006840F03200104990
:1007600008600E48006840F080700C49086000BFC7
:100770000A480068400E0028FAD00848406840F057
:1007800002000649486005E004484068C0F3870558
:1007900005F00305022DF7D130BD00000010024026
:1007A0000020024010B51348006840F001001149D4
:1007B000086008464068104908400E4948600846ED
:1007C00000680E4908400B4908600846006820F49C
:1007D000802008600846406820F4FE0048604FF41E
:1007E0001F008860FFF722FF4FF000600449086097
:1007F00010BD0000001002400000FFF8FFFFF6FEF1
:1008000008ED00E00B48008820B10A480088401E2F
:100810000849088007480088012801D10649088056
:1008200006480078401C0549087000204FF08041C0
:10083000088270471A000020160000200C000020DB
:1008400010B515480088012825D1144800882128B2
:1008500017D11348007B522813D11148407B10490F
:10086000897B40EA012004B2B4F5AF7F06DA14F5C3
:10087000AF7F03DD01200B49087002E00020094929
:100880000870002004490880044908804FF4007172
:100890000348FFF770FC10BD160000201800002070
:1008A00020040020140000200E49098801F02001D6
:1008B000B1B10C49091D0988C8B20B49098879B939
:1008C0000A490988B1F5007F0ADA08490A880988C7
:1008D000491C064B1980064988540521054A118098
:1008E0007047000000380140000000200200002096
:1008F00020000020040000200E49098801F020019A
:10090000B1B10C49091D0988C8B20B49098879B9E8
:100910000A490988B1F5007F0ADA08490A88098876
:10092000491C064B1980064988540521054A118047
:10093000704700000044004016000020180000200E
:10094000200400201A0000200E49098801F020012F
:10095000B1B10C49091D0988C8B20B49098879B998
:100960000A490988B1F5007F0ADA08490A88098826
:10097000491C064B1980064988540521054A1180F7
:1009800070470000004800400E00002010000020CA
:1009900020020020120000200FB4054B10B503A95F
:1009A000044A029800F018F810BC5DF814FB00002F
:1009B0006D0B00080800002002E008C8121F08C1E3
:1009C000002AFAD170477047002001E001C1121FD0
:1009D000002AFBD1704700002DE9FF4F89B09B46EC
:1009E0000446002506E025280BD05A460B9990476F
:1009F000641C6D1C20780028F5D10DB02846BDE898
:100A0000F08F0027B8460122474900E0074314F859
:100A1000013F203B02FA03F00842F7D120782E284C
:100A200019D114F8010F47F004072A280ED06FF0EF
:100A30002F022078A0F1300109290CD808EB880199
:100A400002EB410100EB0108641CF2E70A98641C08
:100A500050F8048B0A9020780028CED0642808D063
:100A6000692806D075281ED05A460B9990476D1CF0
:100A700058E00A994FF00A0901C90A91002802DAE0
:100A800040422D2102E0390504D52B218DF820109C
:100A9000012103E0F90704D02021F7E78A4608AED8
:100AA0000DE00021FAE70A994FF00A0901C90A91FD
:100AB000F7E74946FFF74BFC303106F8011D0028E7
:100AC000F7D1ADEB060000F12009780701D44FF013
:100AD0000108C84502DDA8EB090000E000208046BF
:100AE000002706E008A85A46C05D0B9990476D1C88
:100AF0007F1C5745F6DB04E030205A460B9990479F
:100B00006D1CB8F10001A8F10108F5DC05E016F84C
:100B1000010B5A460B9990476D1CB9F10001A9F1E0
:100B20000109F4DC641C65E7092801004FF0E021AD
:100B3000096921F004014FF0E0221161C21700EBB6
:100B40005272C2F3C702074B1A701946097801EBBB
:100B50004102C2EBC1114FF6FF7202EAC101024A23
:100B6000118070471C0000201E00002000BF054AB5
:100B7000128802F04002002AF9D0C2B2014B1B1DBC
:100B80001A807047003801401148C06940F00100E8
:100B90000F49C86141F61F408904088532208885C5
:100BA0004007808940F0010088811C20012181409C
:100BB0004209920002F1E022C2F8001100BF4FF09A
:100BC0008040008840F001004FF08041088070476D
:100BD000001002400EB50920FFF79CFDFFF7D4FF7F
:100BE0004FF4E13000F002FA4FF4E13000F060F829
:100BF0004FF4964000F02AF94820FFF797FFFFF7DF
:100C000005FC41E0FFF71CFE2048007805283BDB8F
:100C10000420FFF79DFC83460520FFF799FC8246E0
:100C20000620FFF795FC81460720FFF791FC8046E0
:100C30000820FFF78DFC07460920FFF789FC0446D2
:100C400004EB0A00584407EB08014944451A2846BA
:100C5000E91705EB116109124EB2782E02DB7F2EE7
:100C600000DC78260A48007800B17926F0B2FFF758
:100C7000CFFC43463A46214606A08DE8000EFFF71A
:100C80008BFE002001490870BCE700000C0000202A
:100C900014000020256420202564202025642020C5
:100CA000256420202564202025640D0A0000000012
:100CB0002DE9F05F04465F48806940F004005D491B
:100CC00088615D48006820F470605B4908600846F0
:100CD000006840F4306008600846006820F4704006
:100CE00008600846006840F4004008605148C06948
:100CF00040F400304F49C8615048008820F48050CB
:100D00004E490880081D008820F44050091D0880C5
:100D1000081F008840F00800091F08800846008866
:100D200040F0040008800846008840F02000088059
:100D30002001FFF7F3FA804641464148FFF7B0FA39
:100D400005462846FFF7EFFA86B23046FFF7E6FA87
:100D500080462946FFF76FFA07464FF6FF7000EA14
:100D600006164FF083413846FFF768FA8146304651
:100D7000FFF7D4FA82464946FFF708FA8046FFF7A4
:100D8000D2FA2E49091F0880262005224FF0020CB6
:100D9000E0461346C3F1070BBBF1040F02D94FF035
:100DA000040B01E0C3F1070BDA4603F1040BBBF1BE
:100DB000070F02D24FF0000B01E0A3F1030BD9465D
:100DC0004FF0010B0BFA0AFBABF1010B0BEA0C0B1A
:100DD0000BFA09FB4FF0010E0EFA09FEAEF1010EFF
:100DE0000EEA080E4BEA0E0100BF002809DA0A07D6
:100DF0004FEA126C134A00F00F031B1F02F803C0E6
:100E000003E00A07130E104A135400BF262000F017
:100E10001F02012191404209920002F1E022C2F832
:100E2000001100BF0548008840F4005003490880C5
:100E3000BDE8F09F00100240000801400C44004053
:100E40004054094C18ED00E000E400E02DE9F05FAB
:100E500004466048806940F008005E4988615E4849
:100E6000006820F470605C4908600846006840F43F
:100E7000306008600846006820F47040086008464A
:100E8000006840F4004008605248C06940F4802087
:100E90005049C8615148008820F480504F4908806B
:100EA000081D008820F44050091D0880081F008894
:100EB00040F00800091F08800846008840F0040040
:100EC00008800846008840F0200008802001FFF7D5
:100ED00025FA804641464248FFF7E2F90546284692
:100EE000FFF721FA86B23046FFF718FA8046294606
:100EF000FFF7A1F907464FF6FF7000EA06164FF01C
:100F000083413846FFF79AF981463046FFF706FAE3
:100F100082464946FFF73AF98046FFF704FA2F491F
:100F2000091F0880272005224FF0020C4FF003080C
:100F30001346C3F1070BBBF1040F02D94FF0040BAA
:100F400001E0C3F1070BDA4603F1040BBBF1070F15
:100F500002D24FF0000B01E0A3F1030BD9464FF092
:100F6000010B0BFA0AFBABF1010B0BEA0C0B0BFAB2
:100F700009FB4FF0010E0EFA09FEAEF1010E0EEA6A
:100F8000080E4BEA0E0100BF002809DA0A074FEAF3
:100F9000126C144A00F00F031B1F02F803C003E099
:100FA0000A07130E104A135400BF272000F01F0237
:100FB000012191404209920002F1E022C2F80011A1
:100FC00000BF0648008840F4005004490880BDE88E
:100FD000F09F000000100240040C01400C4800404B
:100FE0004054094C18ED00E000E400E02DE9F05F0A
:100FF00004466048806940F004005E4988615E48AC
:10100000006820F0F0005C4908600846006840F085
:10101000B00008600846006820F470600860084668
:10102000006840F4006008605248806940F48040E5
:10103000504988615148008820F480504F49088009
:10104000081D008820F44050091D0880081F0088F2
:1010500040F00800091F08800846008840F004009E
:1010600008800846008840F0200008802001FFF733
:1010700055F9804641464248FFF712F90546284691
:10108000FFF751F986B23046FFF748F98046294606
:10109000FFF7D1F807464FF6FF7000EA06164FF04B
:1010A00083413846FFF7CAF881463046FFF736F9E4
:1010B00082464946FFF76AF88046FFF734F92F4920
:1010C000091F0880252005224FF0020C4FF001086F
:1010D0001346C3F1070BBBF1040F02D94FF0040B09
:1010E00001E0C3F1070BDA4603F1040BBBF1070F74
:1010F00002D24FF0000B01E0A3F1030BD9464FF0F1
:10110000010B0BFA0AFBABF1010B0BEA0C0B0BFA10
:1011100009FB4FF0010E0EFA09FEAEF1010E0EEAC8
:10112000080E4BEA0E0100BF002809DA0A074FEA51
:10113000126C144A00F00F031B1F02F803C003E0F7
:101140000A07130E104A135400BF252000F01F0297
:10115000012191404209920002F1E022C2F80011FF
:1011600000BF0648008840F4005004490880BDE8EC
:10117000F09F000000100240040801400C380140BC
:101180004054894C18ED00E000E400E0AC11000888
:101190000000002020000000B8090008CC11000861
:1011A00020000020000A0000C8090008000000001C
:1011B000000000000000000000000000000000002F
:0C11C00000000000000000000000000023
:0400000508000131BD
:00000001FF
